{
  "contractName": "NFTCollection",
  "abi": [
    {
      "inputs": [
        {
          "internalType": "string",
          "name": "baseURI",
          "type": "string"
        },
        {
          "internalType": "string",
          "name": "name",
          "type": "string"
        },
        {
          "internalType": "string",
          "name": "symbol",
          "type": "string"
        }
      ],
      "stateMutability": "nonpayable",
      "type": "constructor"
    },
    {
      "anonymous": false,
      "inputs": [
        {
          "indexed": true,
          "internalType": "address",
          "name": "owner",
          "type": "address"
        },
        {
          "indexed": true,
          "internalType": "address",
          "name": "approved",
          "type": "address"
        },
        {
          "indexed": true,
          "internalType": "uint256",
          "name": "tokenId",
          "type": "uint256"
        }
      ],
      "name": "Approval",
      "type": "event"
    },
    {
      "anonymous": false,
      "inputs": [
        {
          "indexed": true,
          "internalType": "address",
          "name": "owner",
          "type": "address"
        },
        {
          "indexed": true,
          "internalType": "address",
          "name": "operator",
          "type": "address"
        },
        {
          "indexed": false,
          "internalType": "bool",
          "name": "approved",
          "type": "bool"
        }
      ],
      "name": "ApprovalForAll",
      "type": "event"
    },
    {
      "anonymous": false,
      "inputs": [
        {
          "indexed": true,
          "internalType": "address",
          "name": "previousOwner",
          "type": "address"
        },
        {
          "indexed": true,
          "internalType": "address",
          "name": "newOwner",
          "type": "address"
        }
      ],
      "name": "OwnershipTransferred",
      "type": "event"
    },
    {
      "anonymous": false,
      "inputs": [
        {
          "indexed": true,
          "internalType": "address",
          "name": "from",
          "type": "address"
        },
        {
          "indexed": true,
          "internalType": "address",
          "name": "to",
          "type": "address"
        },
        {
          "indexed": true,
          "internalType": "uint256",
          "name": "tokenId",
          "type": "uint256"
        }
      ],
      "name": "Transfer",
      "type": "event"
    },
    {
      "inputs": [],
      "name": "MAX_PER_MINT",
      "outputs": [
        {
          "internalType": "uint256",
          "name": "",
          "type": "uint256"
        }
      ],
      "stateMutability": "view",
      "type": "function",
      "constant": true
    },
    {
      "inputs": [],
      "name": "MAX_SUPPLY",
      "outputs": [
        {
          "internalType": "uint256",
          "name": "",
          "type": "uint256"
        }
      ],
      "stateMutability": "view",
      "type": "function",
      "constant": true
    },
    {
      "inputs": [],
      "name": "PRICE",
      "outputs": [
        {
          "internalType": "uint256",
          "name": "",
          "type": "uint256"
        }
      ],
      "stateMutability": "view",
      "type": "function",
      "constant": true
    },
    {
      "inputs": [
        {
          "internalType": "address",
          "name": "to",
          "type": "address"
        },
        {
          "internalType": "uint256",
          "name": "tokenId",
          "type": "uint256"
        }
      ],
      "name": "approve",
      "outputs": [],
      "stateMutability": "nonpayable",
      "type": "function"
    },
    {
      "inputs": [
        {
          "internalType": "address",
          "name": "owner",
          "type": "address"
        }
      ],
      "name": "balanceOf",
      "outputs": [
        {
          "internalType": "uint256",
          "name": "",
          "type": "uint256"
        }
      ],
      "stateMutability": "view",
      "type": "function",
      "constant": true
    },
    {
      "inputs": [],
      "name": "baseTokenURI",
      "outputs": [
        {
          "internalType": "string",
          "name": "",
          "type": "string"
        }
      ],
      "stateMutability": "view",
      "type": "function",
      "constant": true
    },
    {
      "inputs": [
        {
          "internalType": "uint256",
          "name": "tokenId",
          "type": "uint256"
        }
      ],
      "name": "getApproved",
      "outputs": [
        {
          "internalType": "address",
          "name": "",
          "type": "address"
        }
      ],
      "stateMutability": "view",
      "type": "function",
      "constant": true
    },
    {
      "inputs": [
        {
          "internalType": "address",
          "name": "owner",
          "type": "address"
        },
        {
          "internalType": "address",
          "name": "operator",
          "type": "address"
        }
      ],
      "name": "isApprovedForAll",
      "outputs": [
        {
          "internalType": "bool",
          "name": "",
          "type": "bool"
        }
      ],
      "stateMutability": "view",
      "type": "function",
      "constant": true
    },
    {
      "inputs": [],
      "name": "name",
      "outputs": [
        {
          "internalType": "string",
          "name": "",
          "type": "string"
        }
      ],
      "stateMutability": "view",
      "type": "function",
      "constant": true
    },
    {
      "inputs": [],
      "name": "owner",
      "outputs": [
        {
          "internalType": "address",
          "name": "",
          "type": "address"
        }
      ],
      "stateMutability": "view",
      "type": "function",
      "constant": true
    },
    {
      "inputs": [
        {
          "internalType": "uint256",
          "name": "tokenId",
          "type": "uint256"
        }
      ],
      "name": "ownerOf",
      "outputs": [
        {
          "internalType": "address",
          "name": "",
          "type": "address"
        }
      ],
      "stateMutability": "view",
      "type": "function",
      "constant": true
    },
    {
      "inputs": [],
      "name": "renounceOwnership",
      "outputs": [],
      "stateMutability": "nonpayable",
      "type": "function"
    },
    {
      "inputs": [
        {
          "internalType": "address",
          "name": "from",
          "type": "address"
        },
        {
          "internalType": "address",
          "name": "to",
          "type": "address"
        },
        {
          "internalType": "uint256",
          "name": "tokenId",
          "type": "uint256"
        }
      ],
      "name": "safeTransferFrom",
      "outputs": [],
      "stateMutability": "nonpayable",
      "type": "function"
    },
    {
      "inputs": [
        {
          "internalType": "address",
          "name": "from",
          "type": "address"
        },
        {
          "internalType": "address",
          "name": "to",
          "type": "address"
        },
        {
          "internalType": "uint256",
          "name": "tokenId",
          "type": "uint256"
        },
        {
          "internalType": "bytes",
          "name": "data",
          "type": "bytes"
        }
      ],
      "name": "safeTransferFrom",
      "outputs": [],
      "stateMutability": "nonpayable",
      "type": "function"
    },
    {
      "inputs": [
        {
          "internalType": "address",
          "name": "operator",
          "type": "address"
        },
        {
          "internalType": "bool",
          "name": "approved",
          "type": "bool"
        }
      ],
      "name": "setApprovalForAll",
      "outputs": [],
      "stateMutability": "nonpayable",
      "type": "function"
    },
    {
      "inputs": [
        {
          "internalType": "bytes4",
          "name": "interfaceId",
          "type": "bytes4"
        }
      ],
      "name": "supportsInterface",
      "outputs": [
        {
          "internalType": "bool",
          "name": "",
          "type": "bool"
        }
      ],
      "stateMutability": "view",
      "type": "function",
      "constant": true
    },
    {
      "inputs": [],
      "name": "symbol",
      "outputs": [
        {
          "internalType": "string",
          "name": "",
          "type": "string"
        }
      ],
      "stateMutability": "view",
      "type": "function",
      "constant": true
    },
    {
      "inputs": [
        {
          "internalType": "uint256",
          "name": "index",
          "type": "uint256"
        }
      ],
      "name": "tokenByIndex",
      "outputs": [
        {
          "internalType": "uint256",
          "name": "",
          "type": "uint256"
        }
      ],
      "stateMutability": "view",
      "type": "function",
      "constant": true
    },
    {
      "inputs": [
        {
          "internalType": "address",
          "name": "owner",
          "type": "address"
        },
        {
          "internalType": "uint256",
          "name": "index",
          "type": "uint256"
        }
      ],
      "name": "tokenOfOwnerByIndex",
      "outputs": [
        {
          "internalType": "uint256",
          "name": "",
          "type": "uint256"
        }
      ],
      "stateMutability": "view",
      "type": "function",
      "constant": true
    },
    {
      "inputs": [
        {
          "internalType": "uint256",
          "name": "tokenId",
          "type": "uint256"
        }
      ],
      "name": "tokenURI",
      "outputs": [
        {
          "internalType": "string",
          "name": "",
          "type": "string"
        }
      ],
      "stateMutability": "view",
      "type": "function",
      "constant": true
    },
    {
      "inputs": [],
      "name": "totalSupply",
      "outputs": [
        {
          "internalType": "uint256",
          "name": "",
          "type": "uint256"
        }
      ],
      "stateMutability": "view",
      "type": "function",
      "constant": true
    },
    {
      "inputs": [
        {
          "internalType": "address",
          "name": "from",
          "type": "address"
        },
        {
          "internalType": "address",
          "name": "to",
          "type": "address"
        },
        {
          "internalType": "uint256",
          "name": "tokenId",
          "type": "uint256"
        }
      ],
      "name": "transferFrom",
      "outputs": [],
      "stateMutability": "nonpayable",
      "type": "function"
    },
    {
      "inputs": [
        {
          "internalType": "address",
          "name": "newOwner",
          "type": "address"
        }
      ],
      "name": "transferOwnership",
      "outputs": [],
      "stateMutability": "nonpayable",
      "type": "function"
    },
    {
      "inputs": [
        {
          "internalType": "string",
          "name": "_baseTokenURI",
          "type": "string"
        }
      ],
      "name": "setBaseURI",
      "outputs": [],
      "stateMutability": "nonpayable",
      "type": "function"
    },
    {
      "inputs": [
        {
          "internalType": "uint256",
          "name": "_count",
          "type": "uint256"
        }
      ],
      "name": "mintNFTs",
      "outputs": [],
      "stateMutability": "payable",
      "type": "function",
      "payable": true
    },
    {
      "inputs": [
        {
          "internalType": "address",
          "name": "_owner",
          "type": "address"
        }
      ],
      "name": "tokensOfOwner",
      "outputs": [
        {
          "internalType": "uint256[]",
          "name": "",
          "type": "uint256[]"
        }
      ],
      "stateMutability": "view",
      "type": "function",
      "constant": true
    },
    {
      "inputs": [],
      "name": "withdraw",
      "outputs": [],
      "stateMutability": "payable",
      "type": "function",
      "payable": true
    },
    {
      "inputs": [
        {
          "internalType": "uint256",
          "name": "_count",
          "type": "uint256"
        }
      ],
      "name": "reserveNFTs",
      "outputs": [],
      "stateMutability": "nonpayable",
      "type": "function"
    }
  ],
  "bytecode": "0x60806040523480156200001157600080fd5b5060405162004737380380620047378339818101604052810190620000379190620004a9565b81818160009080519060200190620000519291906200025c565b5080600190805190602001906200006a9291906200025c565b5050506200008d62000081620000a760201b60201c565b620000af60201b60201c565b6200009e836200017560201b60201c565b50505062000649565b600033905090565b6000600a60009054906101000a900473ffffffffffffffffffffffffffffffffffffffff16905081600a60006101000a81548173ffffffffffffffffffffffffffffffffffffffff021916908373ffffffffffffffffffffffffffffffffffffffff1602179055508173ffffffffffffffffffffffffffffffffffffffff168173ffffffffffffffffffffffffffffffffffffffff167f8be0079c531659141344cd1fd0a4f28419497f9722a3daafe3b4186f6b6457e060405160405180910390a35050565b62000185620001a160201b60201c565b80600c90805190602001906200019d9291906200025c565b5050565b620001b1620000a760201b60201c565b73ffffffffffffffffffffffffffffffffffffffff16620001d76200023260201b60201c565b73ffffffffffffffffffffffffffffffffffffffff161462000230576040517f08c379a00000000000000000000000000000000000000000000000000000000081526004016200022790620005c3565b60405180910390fd5b565b6000600a60009054906101000a900473ffffffffffffffffffffffffffffffffffffffff16905090565b8280546200026a9062000614565b90600052602060002090601f0160209004810192826200028e5760008555620002da565b82601f10620002a957805160ff1916838001178555620002da565b82800160010185558215620002da579182015b82811115620002d9578251825591602001919060010190620002bc565b5b509050620002e99190620002ed565b5090565b5b8082111562000308576000816000905550600101620002ee565b5090565b6000604051905090565b600080fd5b600080fd5b600080fd5b600080fd5b6000601f19601f8301169050919050565b7f4e487b7100000000000000000000000000000000000000000000000000000000600052604160045260246000fd5b62000375826200032a565b810181811067ffffffffffffffff821117156200039757620003966200033b565b5b80604052505050565b6000620003ac6200030c565b9050620003ba82826200036a565b919050565b600067ffffffffffffffff821115620003dd57620003dc6200033b565b5b620003e8826200032a565b9050602081019050919050565b60005b8381101562000415578082015181840152602081019050620003f8565b8381111562000425576000848401525b50505050565b6000620004426200043c84620003bf565b620003a0565b90508281526020810184848401111562000461576200046062000325565b5b6200046e848285620003f5565b509392505050565b600082601f8301126200048e576200048d62000320565b5b8151620004a08482602086016200042b565b91505092915050565b600080600060608486031215620004c557620004c462000316565b5b600084015167ffffffffffffffff811115620004e657620004e56200031b565b5b620004f48682870162000476565b935050602084015167ffffffffffffffff8111156200051857620005176200031b565b5b620005268682870162000476565b925050604084015167ffffffffffffffff8111156200054a57620005496200031b565b5b620005588682870162000476565b9150509250925092565b600082825260208201905092915050565b7f4f776e61626c653a2063616c6c6572206973206e6f7420746865206f776e6572600082015250565b6000620005ab60208362000562565b9150620005b88262000573565b602082019050919050565b60006020820190508181036000830152620005de816200059c565b9050919050565b7f4e487b7100000000000000000000000000000000000000000000000000000000600052602260045260246000fd5b600060028204905060018216806200062d57607f821691505b602082108103620006435762000642620005e5565b5b50919050565b6140de80620006596000396000f3fe6080604052600436106101b75760003560e01c80636352211e116100ec578063a22cb4651161008a578063c87b56dd11610064578063c87b56dd146105f0578063d547cfb71461062d578063e985e9c514610658578063f2fde38b14610695576101b7565b8063a22cb46514610575578063b88d4fde1461059e578063bc7df091146105c7576101b7565b80638462151c116100c65780638462151c146104b75780638d859f3e146104f45780638da5cb5b1461051f57806395d89b411461054a576101b7565b80636352211e1461042657806370a0823114610463578063715018a6146104a0576101b7565b80632f745c59116101595780633ccfd60b116101335780633ccfd60b1461038d57806342842e0e146103975780634f6ccce7146103c057806355f804b3146103fd576101b7565b80632f745c591461030957806332cb6b0c146103465780633b4b138114610371576101b7565b8063095ea7b311610195578063095ea7b31461026157806309d42b301461028a57806318160ddd146102b557806323b872dd146102e0576101b7565b806301ffc9a7146101bc57806306fdde03146101f9578063081812fc14610224575b600080fd5b3480156101c857600080fd5b506101e360048036038101906101de9190612a80565b6106be565b6040516101f09190612ac8565b60405180910390f35b34801561020557600080fd5b5061020e610738565b60405161021b9190612b7c565b60405180910390f35b34801561023057600080fd5b5061024b60048036038101906102469190612bd4565b6107ca565b6040516102589190612c42565b60405180910390f35b34801561026d57600080fd5b5061028860048036038101906102839190612c89565b610810565b005b34801561029657600080fd5b5061029f610927565b6040516102ac9190612cd8565b60405180910390f35b3480156102c157600080fd5b506102ca61092c565b6040516102d79190612cd8565b60405180910390f35b3480156102ec57600080fd5b5061030760048036038101906103029190612cf3565b610939565b005b34801561031557600080fd5b50610330600480360381019061032b9190612c89565b610999565b60405161033d9190612cd8565b60405180910390f35b34801561035257600080fd5b5061035b610a3e565b6040516103689190612cd8565b60405180910390f35b61038b60048036038101906103869190612bd4565b610a44565b005b610395610b7a565b005b3480156103a357600080fd5b506103be60048036038101906103b99190612cf3565b610c7a565b005b3480156103cc57600080fd5b506103e760048036038101906103e29190612bd4565b610c9a565b6040516103f49190612cd8565b60405180910390f35b34801561040957600080fd5b50610424600480360381019061041f9190612e7b565b610d0b565b005b34801561043257600080fd5b5061044d60048036038101906104489190612bd4565b610d2d565b60405161045a9190612c42565b60405180910390f35b34801561046f57600080fd5b5061048a60048036038101906104859190612ec4565b610db3565b6040516104979190612cd8565b60405180910390f35b3480156104ac57600080fd5b506104b5610e6a565b005b3480156104c357600080fd5b506104de60048036038101906104d99190612ec4565b610e7e565b6040516104eb9190612faf565b60405180910390f35b34801561050057600080fd5b50610509610f2c565b6040516105169190612cd8565b60405180910390f35b34801561052b57600080fd5b50610534610f31565b6040516105419190612c42565b60405180910390f35b34801561055657600080fd5b5061055f610f5b565b60405161056c9190612b7c565b60405180910390f35b34801561058157600080fd5b5061059c60048036038101906105979190612ffd565b610fed565b005b3480156105aa57600080fd5b506105c560048036038101906105c091906130de565b611003565b005b3480156105d357600080fd5b506105ee60048036038101906105e99190612bd4565b611065565b005b3480156105fc57600080fd5b5061061760048036038101906106129190612bd4565b6110fc565b6040516106249190612b7c565b60405180910390f35b34801561063957600080fd5b50610642611164565b60405161064f9190612b7c565b60405180910390f35b34801561066457600080fd5b5061067f600480360381019061067a9190613161565b6111f2565b60405161068c9190612ac8565b60405180910390f35b3480156106a157600080fd5b506106bc60048036038101906106b79190612ec4565b611286565b005b60007f780e9d63000000000000000000000000000000000000000000000000000000007bffffffffffffffffffffffffffffffffffffffffffffffffffffffff1916827bffffffffffffffffffffffffffffffffffffffffffffffffffffffff19161480610731575061073082611309565b5b9050919050565b606060008054610747906131d0565b80601f0160208091040260200160405190810160405280929190818152602001828054610773906131d0565b80156107c05780601f10610795576101008083540402835291602001916107c0565b820191906000526020600020905b8154815290600101906020018083116107a357829003601f168201915b5050505050905090565b60006107d5826113eb565b6004600083815260200190815260200160002060009054906101000a900473ffffffffffffffffffffffffffffffffffffffff169050919050565b600061081b82610d2d565b90508073ffffffffffffffffffffffffffffffffffffffff168373ffffffffffffffffffffffffffffffffffffffff160361088b576040517f08c379a000000000000000000000000000000000000000000000000000000000815260040161088290613273565b60405180910390fd5b8073ffffffffffffffffffffffffffffffffffffffff166108aa611436565b73ffffffffffffffffffffffffffffffffffffffff1614806108d957506108d8816108d3611436565b6111f2565b5b610918576040517f08c379a000000000000000000000000000000000000000000000000000000000815260040161090f90613305565b60405180910390fd5b610922838361143e565b505050565b600581565b6000600880549050905090565b61094a610944611436565b826114f7565b610989576040517f08c379a000000000000000000000000000000000000000000000000000000000815260040161098090613397565b60405180910390fd5b61099483838361158c565b505050565b60006109a483610db3565b82106109e5576040517f08c379a00000000000000000000000000000000000000000000000000000000081526004016109dc90613429565b60405180910390fd5b600660008473ffffffffffffffffffffffffffffffffffffffff1673ffffffffffffffffffffffffffffffffffffffff168152602001908152602001600020600083815260200190815260200160002054905092915050565b6103e881565b6000610a50600b611885565b90506103e8610a68838361189390919063ffffffff16565b1115610aa9576040517f08c379a0000000000000000000000000000000000000000000000000000000008152600401610aa090613495565b60405180910390fd5b600082118015610aba575060058211155b610af9576040517f08c379a0000000000000000000000000000000000000000000000000000000008152600401610af090613527565b60405180910390fd5b610b0d8260006118a990919063ffffffff16565b341015610b4f576040517f08c379a0000000000000000000000000000000000000000000000000000000008152600401610b46906135b9565b60405180910390fd5b60005b82811015610b7557610b626118bf565b8080610b6d90613608565b915050610b52565b505050565b610b826118e4565b600047905060008111610bca576040517f08c379a0000000000000000000000000000000000000000000000000000000008152600401610bc19061369c565b60405180910390fd5b60003373ffffffffffffffffffffffffffffffffffffffff1682604051610bf0906136ed565b60006040518083038185875af1925050503d8060008114610c2d576040519150601f19603f3d011682016040523d82523d6000602084013e610c32565b606091505b5050905080610c76576040517f08c379a0000000000000000000000000000000000000000000000000000000008152600401610c6d9061374e565b60405180910390fd5b5050565b610c9583838360405180602001604052806000815250611003565b505050565b6000610ca461092c565b8210610ce5576040517f08c379a0000000000000000000000000000000000000000000000000000000008152600401610cdc906137e0565b60405180910390fd5b60088281548110610cf957610cf8613800565b5b90600052602060002001549050919050565b610d136118e4565b80600c9080519060200190610d29929190612971565b5050565b600080610d3983611962565b9050600073ffffffffffffffffffffffffffffffffffffffff168173ffffffffffffffffffffffffffffffffffffffff1603610daa576040517f08c379a0000000000000000000000000000000000000000000000000000000008152600401610da19061387b565b60405180910390fd5b80915050919050565b60008073ffffffffffffffffffffffffffffffffffffffff168273ffffffffffffffffffffffffffffffffffffffff1603610e23576040517f08c379a0000000000000000000000000000000000000000000000000000000008152600401610e1a9061390d565b60405180910390fd5b600360008373ffffffffffffffffffffffffffffffffffffffff1673ffffffffffffffffffffffffffffffffffffffff168152602001908152602001600020549050919050565b610e726118e4565b610e7c600061199f565b565b60606000610e8b83610db3565b905060008167ffffffffffffffff811115610ea957610ea8612d50565b5b604051908082528060200260200182016040528015610ed75781602001602082028036833780820191505090505b50905060005b82811015610f2157610eef8582610999565b828281518110610f0257610f01613800565b5b6020026020010181815250508080610f1990613608565b915050610edd565b508092505050919050565b600081565b6000600a60009054906101000a900473ffffffffffffffffffffffffffffffffffffffff16905090565b606060018054610f6a906131d0565b80601f0160208091040260200160405190810160405280929190818152602001828054610f96906131d0565b8015610fe35780601f10610fb857610100808354040283529160200191610fe3565b820191906000526020600020905b815481529060010190602001808311610fc657829003601f168201915b5050505050905090565b610fff610ff8611436565b8383611a65565b5050565b61101461100e611436565b836114f7565b611053576040517f08c379a000000000000000000000000000000000000000000000000000000000815260040161104a90613397565b60405180910390fd5b61105f84848484611bd1565b50505050565b61106d6118e4565b6000611079600b611885565b90506103e8611091838361189390919063ffffffff16565b106110d1576040517f08c379a00000000000000000000000000000000000000000000000000000000081526004016110c890613979565b60405180910390fd5b60005b828110156110f7576110e46118bf565b80806110ef90613608565b9150506110d4565b505050565b6060611107826113eb565b6000611111611c2d565b90506000815111611131576040518060200160405280600081525061115c565b8061113b84611cbf565b60405160200161114c9291906139d5565b6040516020818303038152906040525b915050919050565b600c8054611171906131d0565b80601f016020809104026020016040519081016040528092919081815260200182805461119d906131d0565b80156111ea5780601f106111bf576101008083540402835291602001916111ea565b820191906000526020600020905b8154815290600101906020018083116111cd57829003601f168201915b505050505081565b6000600560008473ffffffffffffffffffffffffffffffffffffffff1673ffffffffffffffffffffffffffffffffffffffff16815260200190815260200160002060008373ffffffffffffffffffffffffffffffffffffffff1673ffffffffffffffffffffffffffffffffffffffff16815260200190815260200160002060009054906101000a900460ff16905092915050565b61128e6118e4565b600073ffffffffffffffffffffffffffffffffffffffff168173ffffffffffffffffffffffffffffffffffffffff16036112fd576040517f08c379a00000000000000000000000000000000000000000000000000000000081526004016112f490613a6b565b60405180910390fd5b6113068161199f565b50565b60007f80ac58cd000000000000000000000000000000000000000000000000000000007bffffffffffffffffffffffffffffffffffffffffffffffffffffffff1916827bffffffffffffffffffffffffffffffffffffffffffffffffffffffff191614806113d457507f5b5e139f000000000000000000000000000000000000000000000000000000007bffffffffffffffffffffffffffffffffffffffffffffffffffffffff1916827bffffffffffffffffffffffffffffffffffffffffffffffffffffffff1916145b806113e457506113e382611d8d565b5b9050919050565b6113f481611df7565b611433576040517f08c379a000000000000000000000000000000000000000000000000000000000815260040161142a9061387b565b60405180910390fd5b50565b600033905090565b816004600083815260200190815260200160002060006101000a81548173ffffffffffffffffffffffffffffffffffffffff021916908373ffffffffffffffffffffffffffffffffffffffff160217905550808273ffffffffffffffffffffffffffffffffffffffff166114b183610d2d565b73ffffffffffffffffffffffffffffffffffffffff167f8c5be1e5ebec7d5bd14f71427d1e84f3dd0314c0f7b2291e5b200ac8c7c3b92560405160405180910390a45050565b60008061150383610d2d565b90508073ffffffffffffffffffffffffffffffffffffffff168473ffffffffffffffffffffffffffffffffffffffff161480611545575061154481856111f2565b5b8061158357508373ffffffffffffffffffffffffffffffffffffffff1661156b846107ca565b73ffffffffffffffffffffffffffffffffffffffff16145b91505092915050565b8273ffffffffffffffffffffffffffffffffffffffff166115ac82610d2d565b73ffffffffffffffffffffffffffffffffffffffff1614611602576040517f08c379a00000000000000000000000000000000000000000000000000000000081526004016115f990613afd565b60405180910390fd5b600073ffffffffffffffffffffffffffffffffffffffff168273ffffffffffffffffffffffffffffffffffffffff1603611671576040517f08c379a000000000000000000000000000000000000000000000000000000000815260040161166890613b8f565b60405180910390fd5b61167e8383836001611e38565b8273ffffffffffffffffffffffffffffffffffffffff1661169e82610d2d565b73ffffffffffffffffffffffffffffffffffffffff16146116f4576040517f08c379a00000000000000000000000000000000000000000000000000000000081526004016116eb90613afd565b60405180910390fd5b6004600082815260200190815260200160002060006101000a81549073ffffffffffffffffffffffffffffffffffffffff02191690556001600360008573ffffffffffffffffffffffffffffffffffffffff1673ffffffffffffffffffffffffffffffffffffffff168152602001908152602001600020600082825403925050819055506001600360008473ffffffffffffffffffffffffffffffffffffffff1673ffffffffffffffffffffffffffffffffffffffff16815260200190815260200160002060008282540192505081905550816002600083815260200190815260200160002060006101000a81548173ffffffffffffffffffffffffffffffffffffffff021916908373ffffffffffffffffffffffffffffffffffffffff160217905550808273ffffffffffffffffffffffffffffffffffffffff168473ffffffffffffffffffffffffffffffffffffffff167fddf252ad1be2c89b69c2b068fc378daa952ba7f163c4a11628f55a4df523b3ef60405160405180910390a46118808383836001611f96565b505050565b600081600001549050919050565b600081836118a19190613baf565b905092915050565b600081836118b79190613c05565b905092915050565b60006118cb600b611885565b90506118d73382611f9c565b6118e1600b611fba565b50565b6118ec611436565b73ffffffffffffffffffffffffffffffffffffffff1661190a610f31565b73ffffffffffffffffffffffffffffffffffffffff1614611960576040517f08c379a000000000000000000000000000000000000000000000000000000000815260040161195790613cab565b60405180910390fd5b565b60006002600083815260200190815260200160002060009054906101000a900473ffffffffffffffffffffffffffffffffffffffff169050919050565b6000600a60009054906101000a900473ffffffffffffffffffffffffffffffffffffffff16905081600a60006101000a81548173ffffffffffffffffffffffffffffffffffffffff021916908373ffffffffffffffffffffffffffffffffffffffff1602179055508173ffffffffffffffffffffffffffffffffffffffff168173ffffffffffffffffffffffffffffffffffffffff167f8be0079c531659141344cd1fd0a4f28419497f9722a3daafe3b4186f6b6457e060405160405180910390a35050565b8173ffffffffffffffffffffffffffffffffffffffff168373ffffffffffffffffffffffffffffffffffffffff1603611ad3576040517f08c379a0000000000000000000000000000000000000000000000000000000008152600401611aca90613d17565b60405180910390fd5b80600560008573ffffffffffffffffffffffffffffffffffffffff1673ffffffffffffffffffffffffffffffffffffffff16815260200190815260200160002060008473ffffffffffffffffffffffffffffffffffffffff1673ffffffffffffffffffffffffffffffffffffffff16815260200190815260200160002060006101000a81548160ff0219169083151502179055508173ffffffffffffffffffffffffffffffffffffffff168373ffffffffffffffffffffffffffffffffffffffff167f17307eab39ab6107e8899845ad3d59bd9653f200f220920489ca2b5937696c3183604051611bc49190612ac8565b60405180910390a3505050565b611bdc84848461158c565b611be884848484611fd0565b611c27576040517f08c379a0000000000000000000000000000000000000000000000000000000008152600401611c1e90613da9565b60405180910390fd5b50505050565b6060600c8054611c3c906131d0565b80601f0160208091040260200160405190810160405280929190818152602001828054611c68906131d0565b8015611cb55780601f10611c8a57610100808354040283529160200191611cb5565b820191906000526020600020905b815481529060010190602001808311611c9857829003601f168201915b5050505050905090565b606060006001611cce84612157565b01905060008167ffffffffffffffff811115611ced57611cec612d50565b5b6040519080825280601f01601f191660200182016040528015611d1f5781602001600182028036833780820191505090505b509050600082602001820190505b600115611d82578080600190039150507f3031323334353637383961626364656600000000000000000000000000000000600a86061a8153600a8581611d7657611d75613dc9565b5b04945060008503611d2d575b819350505050919050565b60007f01ffc9a7000000000000000000000000000000000000000000000000000000007bffffffffffffffffffffffffffffffffffffffffffffffffffffffff1916827bffffffffffffffffffffffffffffffffffffffffffffffffffffffff1916149050919050565b60008073ffffffffffffffffffffffffffffffffffffffff16611e1983611962565b73ffffffffffffffffffffffffffffffffffffffff1614159050919050565b611e44848484846122aa565b6001811115611e88576040517f08c379a0000000000000000000000000000000000000000000000000000000008152600401611e7f90613e6a565b60405180910390fd5b6000829050600073ffffffffffffffffffffffffffffffffffffffff168573ffffffffffffffffffffffffffffffffffffffff1603611ecf57611eca816123d0565b611f0e565b8373ffffffffffffffffffffffffffffffffffffffff168573ffffffffffffffffffffffffffffffffffffffff1614611f0d57611f0c8582612419565b5b5b600073ffffffffffffffffffffffffffffffffffffffff168473ffffffffffffffffffffffffffffffffffffffff1603611f5057611f4b81612586565b611f8f565b8473ffffffffffffffffffffffffffffffffffffffff168473ffffffffffffffffffffffffffffffffffffffff1614611f8e57611f8d8482612657565b5b5b5050505050565b50505050565b611fb68282604051806020016040528060008152506126d6565b5050565b6001816000016000828254019250508190555050565b6000611ff18473ffffffffffffffffffffffffffffffffffffffff16612731565b1561214a578373ffffffffffffffffffffffffffffffffffffffff1663150b7a0261201a611436565b8786866040518563ffffffff1660e01b815260040161203c9493929190613edf565b6020604051808303816000875af192505050801561207857506040513d601f19601f820116820180604052508101906120759190613f40565b60015b6120fa573d80600081146120a8576040519150601f19603f3d011682016040523d82523d6000602084013e6120ad565b606091505b5060008151036120f2576040517f08c379a00000000000000000000000000000000000000000000000000000000081526004016120e990613da9565b60405180910390fd5b805181602001fd5b63150b7a0260e01b7bffffffffffffffffffffffffffffffffffffffffffffffffffffffff1916817bffffffffffffffffffffffffffffffffffffffffffffffffffffffff19161491505061214f565b600190505b949350505050565b600080600090507a184f03e93ff9f4daa797ed6e38ed64bf6a1f01000000000000000083106121b5577a184f03e93ff9f4daa797ed6e38ed64bf6a1f01000000000000000083816121ab576121aa613dc9565b5b0492506040810190505b6d04ee2d6d415b85acef810000000083106121f2576d04ee2d6d415b85acef810000000083816121e8576121e7613dc9565b5b0492506020810190505b662386f26fc10000831061222157662386f26fc10000838161221757612216613dc9565b5b0492506010810190505b6305f5e100831061224a576305f5e10083816122405761223f613dc9565b5b0492506008810190505b612710831061226f57612710838161226557612264613dc9565b5b0492506004810190505b60648310612292576064838161228857612287613dc9565b5b0492506002810190505b600a83106122a1576001810190505b80915050919050565b60018111156123ca57600073ffffffffffffffffffffffffffffffffffffffff168473ffffffffffffffffffffffffffffffffffffffff161461233e5780600360008673ffffffffffffffffffffffffffffffffffffffff1673ffffffffffffffffffffffffffffffffffffffff16815260200190815260200160002060008282546123369190613f6d565b925050819055505b600073ffffffffffffffffffffffffffffffffffffffff168373ffffffffffffffffffffffffffffffffffffffff16146123c95780600360008573ffffffffffffffffffffffffffffffffffffffff1673ffffffffffffffffffffffffffffffffffffffff16815260200190815260200160002060008282546123c19190613baf565b925050819055505b5b50505050565b6008805490506009600083815260200190815260200160002081905550600881908060018154018082558091505060019003906000526020600020016000909190919091505550565b6000600161242684610db3565b6124309190613f6d565b9050600060076000848152602001908152602001600020549050818114612515576000600660008673ffffffffffffffffffffffffffffffffffffffff1673ffffffffffffffffffffffffffffffffffffffff168152602001908152602001600020600084815260200190815260200160002054905080600660008773ffffffffffffffffffffffffffffffffffffffff1673ffffffffffffffffffffffffffffffffffffffff168152602001908152602001600020600084815260200190815260200160002081905550816007600083815260200190815260200160002081905550505b6007600084815260200190815260200160002060009055600660008573ffffffffffffffffffffffffffffffffffffffff1673ffffffffffffffffffffffffffffffffffffffff16815260200190815260200160002060008381526020019081526020016000206000905550505050565b6000600160088054905061259a9190613f6d565b90506000600960008481526020019081526020016000205490506000600883815481106125ca576125c9613800565b5b9060005260206000200154905080600883815481106125ec576125eb613800565b5b90600052602060002001819055508160096000838152602001908152602001600020819055506009600085815260200190815260200160002060009055600880548061263b5761263a613fa1565b5b6001900381819060005260206000200160009055905550505050565b600061266283610db3565b905081600660008573ffffffffffffffffffffffffffffffffffffffff1673ffffffffffffffffffffffffffffffffffffffff168152602001908152602001600020600083815260200190815260200160002081905550806007600084815260200190815260200160002081905550505050565b6126e08383612754565b6126ed6000848484611fd0565b61272c576040517f08c379a000000000000000000000000000000000000000000000000000000000815260040161272390613da9565b60405180910390fd5b505050565b6000808273ffffffffffffffffffffffffffffffffffffffff163b119050919050565b600073ffffffffffffffffffffffffffffffffffffffff168273ffffffffffffffffffffffffffffffffffffffff16036127c3576040517f08c379a00000000000000000000000000000000000000000000000000000000081526004016127ba9061401c565b60405180910390fd5b6127cc81611df7565b1561280c576040517f08c379a000000000000000000000000000000000000000000000000000000000815260040161280390614088565b60405180910390fd5b61281a600083836001611e38565b61282381611df7565b15612863576040517f08c379a000000000000000000000000000000000000000000000000000000000815260040161285a90614088565b60405180910390fd5b6001600360008473ffffffffffffffffffffffffffffffffffffffff1673ffffffffffffffffffffffffffffffffffffffff16815260200190815260200160002060008282540192505081905550816002600083815260200190815260200160002060006101000a81548173ffffffffffffffffffffffffffffffffffffffff021916908373ffffffffffffffffffffffffffffffffffffffff160217905550808273ffffffffffffffffffffffffffffffffffffffff16600073ffffffffffffffffffffffffffffffffffffffff167fddf252ad1be2c89b69c2b068fc378daa952ba7f163c4a11628f55a4df523b3ef60405160405180910390a461296d600083836001611f96565b5050565b82805461297d906131d0565b90600052602060002090601f01602090048101928261299f57600085556129e6565b82601f106129b857805160ff19168380011785556129e6565b828001600101855582156129e6579182015b828111156129e55782518255916020019190600101906129ca565b5b5090506129f391906129f7565b5090565b5b80821115612a105760008160009055506001016129f8565b5090565b6000604051905090565b600080fd5b600080fd5b60007fffffffff0000000000000000000000000000000000000000000000000000000082169050919050565b612a5d81612a28565b8114612a6857600080fd5b50565b600081359050612a7a81612a54565b92915050565b600060208284031215612a9657612a95612a1e565b5b6000612aa484828501612a6b565b91505092915050565b60008115159050919050565b612ac281612aad565b82525050565b6000602082019050612add6000830184612ab9565b92915050565b600081519050919050565b600082825260208201905092915050565b60005b83811015612b1d578082015181840152602081019050612b02565b83811115612b2c576000848401525b50505050565b6000601f19601f8301169050919050565b6000612b4e82612ae3565b612b588185612aee565b9350612b68818560208601612aff565b612b7181612b32565b840191505092915050565b60006020820190508181036000830152612b968184612b43565b905092915050565b6000819050919050565b612bb181612b9e565b8114612bbc57600080fd5b50565b600081359050612bce81612ba8565b92915050565b600060208284031215612bea57612be9612a1e565b5b6000612bf884828501612bbf565b91505092915050565b600073ffffffffffffffffffffffffffffffffffffffff82169050919050565b6000612c2c82612c01565b9050919050565b612c3c81612c21565b82525050565b6000602082019050612c576000830184612c33565b92915050565b612c6681612c21565b8114612c7157600080fd5b50565b600081359050612c8381612c5d565b92915050565b60008060408385031215612ca057612c9f612a1e565b5b6000612cae85828601612c74565b9250506020612cbf85828601612bbf565b9150509250929050565b612cd281612b9e565b82525050565b6000602082019050612ced6000830184612cc9565b92915050565b600080600060608486031215612d0c57612d0b612a1e565b5b6000612d1a86828701612c74565b9350506020612d2b86828701612c74565b9250506040612d3c86828701612bbf565b9150509250925092565b600080fd5b600080fd5b7f4e487b7100000000000000000000000000000000000000000000000000000000600052604160045260246000fd5b612d8882612b32565b810181811067ffffffffffffffff82111715612da757612da6612d50565b5b80604052505050565b6000612dba612a14565b9050612dc68282612d7f565b919050565b600067ffffffffffffffff821115612de657612de5612d50565b5b612def82612b32565b9050602081019050919050565b82818337600083830152505050565b6000612e1e612e1984612dcb565b612db0565b905082815260208101848484011115612e3a57612e39612d4b565b5b612e45848285612dfc565b509392505050565b600082601f830112612e6257612e61612d46565b5b8135612e72848260208601612e0b565b91505092915050565b600060208284031215612e9157612e90612a1e565b5b600082013567ffffffffffffffff811115612eaf57612eae612a23565b5b612ebb84828501612e4d565b91505092915050565b600060208284031215612eda57612ed9612a1e565b5b6000612ee884828501612c74565b91505092915050565b600081519050919050565b600082825260208201905092915050565b6000819050602082019050919050565b612f2681612b9e565b82525050565b6000612f388383612f1d565b60208301905092915050565b6000602082019050919050565b6000612f5c82612ef1565b612f668185612efc565b9350612f7183612f0d565b8060005b83811015612fa2578151612f898882612f2c565b9750612f9483612f44565b925050600181019050612f75565b5085935050505092915050565b60006020820190508181036000830152612fc98184612f51565b905092915050565b612fda81612aad565b8114612fe557600080fd5b50565b600081359050612ff781612fd1565b92915050565b6000806040838503121561301457613013612a1e565b5b600061302285828601612c74565b925050602061303385828601612fe8565b9150509250929050565b600067ffffffffffffffff82111561305857613057612d50565b5b61306182612b32565b9050602081019050919050565b600061308161307c8461303d565b612db0565b90508281526020810184848401111561309d5761309c612d4b565b5b6130a8848285612dfc565b509392505050565b600082601f8301126130c5576130c4612d46565b5b81356130d584826020860161306e565b91505092915050565b600080600080608085870312156130f8576130f7612a1e565b5b600061310687828801612c74565b945050602061311787828801612c74565b935050604061312887828801612bbf565b925050606085013567ffffffffffffffff81111561314957613148612a23565b5b613155878288016130b0565b91505092959194509250565b6000806040838503121561317857613177612a1e565b5b600061318685828601612c74565b925050602061319785828601612c74565b9150509250929050565b7f4e487b7100000000000000000000000000000000000000000000000000000000600052602260045260246000fd5b600060028204905060018216806131e857607f821691505b6020821081036131fb576131fa6131a1565b5b50919050565b7f4552433732313a20617070726f76616c20746f2063757272656e74206f776e6560008201527f7200000000000000000000000000000000000000000000000000000000000000602082015250565b600061325d602183612aee565b915061326882613201565b604082019050919050565b6000602082019050818103600083015261328c81613250565b9050919050565b7f4552433732313a20617070726f76652063616c6c6572206973206e6f7420746f60008201527f6b656e206f776e6572206f7220617070726f76656420666f7220616c6c000000602082015250565b60006132ef603d83612aee565b91506132fa82613293565b604082019050919050565b6000602082019050818103600083015261331e816132e2565b9050919050565b7f4552433732313a2063616c6c6572206973206e6f7420746f6b656e206f776e6560008201527f72206f7220617070726f76656400000000000000000000000000000000000000602082015250565b6000613381602d83612aee565b915061338c82613325565b604082019050919050565b600060208201905081810360008301526133b081613374565b9050919050565b7f455243373231456e756d657261626c653a206f776e657220696e646578206f7560008201527f74206f6620626f756e6473000000000000000000000000000000000000000000602082015250565b6000613413602b83612aee565b915061341e826133b7565b604082019050919050565b6000602082019050818103600083015261344281613406565b9050919050565b7f5468697320636f6c6c656374696f6e20697320736f6c64206f75742100000000600082015250565b600061347f601c83612aee565b915061348a82613449565b602082019050919050565b600060208201905081810360008301526134ae81613472565b9050919050565b7f596f75206861766520726563656976656420746865206d6178696d756d20616d60008201527f6f756e74206f66204e46547320616c6c6f7765642e0000000000000000000000602082015250565b6000613511603583612aee565b915061351c826134b5565b604082019050919050565b6000602082019050818103600083015261354081613504565b9050919050565b7f4e6f7420656e6f75676820657468657220746f207075726368617365204e465460008201527f732e000000000000000000000000000000000000000000000000000000000000602082015250565b60006135a3602283612aee565b91506135ae82613547565b604082019050919050565b600060208201905081810360008301526135d281613596565b9050919050565b7f4e487b7100000000000000000000000000000000000000000000000000000000600052601160045260246000fd5b600061361382612b9e565b91507fffffffffffffffffffffffffffffffffffffffffffffffffffffffffffffffff8203613645576136446135d9565b5b600182019050919050565b7f4e6f206574686572206c65667420746f20776974686472617700000000000000600082015250565b6000613686601983612aee565b915061369182613650565b602082019050919050565b600060208201905081810360008301526136b581613679565b9050919050565b600081905092915050565b50565b60006136d76000836136bc565b91506136e2826136c7565b600082019050919050565b60006136f8826136ca565b9150819050919050565b7f5472616e73666572206661696c65642e00000000000000000000000000000000600082015250565b6000613738601083612aee565b915061374382613702565b602082019050919050565b600060208201905081810360008301526137678161372b565b9050919050565b7f455243373231456e756d657261626c653a20676c6f62616c20696e646578206f60008201527f7574206f6620626f756e64730000000000000000000000000000000000000000602082015250565b60006137ca602c83612aee565b91506137d58261376e565b604082019050919050565b600060208201905081810360008301526137f9816137bd565b9050919050565b7f4e487b7100000000000000000000000000000000000000000000000000000000600052603260045260246000fd5b7f4552433732313a20696e76616c696420746f6b656e2049440000000000000000600082015250565b6000613865601883612aee565b91506138708261382f565b602082019050919050565b6000602082019050818103600083015261389481613858565b9050919050565b7f4552433732313a2061646472657373207a65726f206973206e6f74206120766160008201527f6c6964206f776e65720000000000000000000000000000000000000000000000602082015250565b60006138f7602983612aee565b91506139028261389b565b604082019050919050565b60006020820190508181036000830152613926816138ea565b9050919050565b7f4e6f7420656e6f756768204e465473206c65667420746f207265736572766500600082015250565b6000613963601f83612aee565b915061396e8261392d565b602082019050919050565b6000602082019050818103600083015261399281613956565b9050919050565b600081905092915050565b60006139af82612ae3565b6139b98185613999565b93506139c9818560208601612aff565b80840191505092915050565b60006139e182856139a4565b91506139ed82846139a4565b91508190509392505050565b7f4f776e61626c653a206e6577206f776e657220697320746865207a65726f206160008201527f6464726573730000000000000000000000000000000000000000000000000000602082015250565b6000613a55602683612aee565b9150613a60826139f9565b604082019050919050565b60006020820190508181036000830152613a8481613a48565b9050919050565b7f4552433732313a207472616e736665722066726f6d20696e636f72726563742060008201527f6f776e6572000000000000000000000000000000000000000000000000000000602082015250565b6000613ae7602583612aee565b9150613af282613a8b565b604082019050919050565b60006020820190508181036000830152613b1681613ada565b9050919050565b7f4552433732313a207472616e7366657220746f20746865207a65726f2061646460008201527f7265737300000000000000000000000000000000000000000000000000000000602082015250565b6000613b79602483612aee565b9150613b8482613b1d565b604082019050919050565b60006020820190508181036000830152613ba881613b6c565b9050919050565b6000613bba82612b9e565b9150613bc583612b9e565b9250827fffffffffffffffffffffffffffffffffffffffffffffffffffffffffffffffff03821115613bfa57613bf96135d9565b5b828201905092915050565b6000613c1082612b9e565b9150613c1b83612b9e565b9250817fffffffffffffffffffffffffffffffffffffffffffffffffffffffffffffffff0483118215151615613c5457613c536135d9565b5b828202905092915050565b7f4f776e61626c653a2063616c6c6572206973206e6f7420746865206f776e6572600082015250565b6000613c95602083612aee565b9150613ca082613c5f565b602082019050919050565b60006020820190508181036000830152613cc481613c88565b9050919050565b7f4552433732313a20617070726f766520746f2063616c6c657200000000000000600082015250565b6000613d01601983612aee565b9150613d0c82613ccb565b602082019050919050565b60006020820190508181036000830152613d3081613cf4565b9050919050565b7f4552433732313a207472616e7366657220746f206e6f6e20455243373231526560008201527f63656976657220696d706c656d656e7465720000000000000000000000000000602082015250565b6000613d93603283612aee565b9150613d9e82613d37565b604082019050919050565b60006020820190508181036000830152613dc281613d86565b9050919050565b7f4e487b7100000000000000000000000000000000000000000000000000000000600052601260045260246000fd5b7f455243373231456e756d657261626c653a20636f6e736563757469766520747260008201527f616e7366657273206e6f7420737570706f727465640000000000000000000000602082015250565b6000613e54603583612aee565b9150613e5f82613df8565b604082019050919050565b60006020820190508181036000830152613e8381613e47565b9050919050565b600081519050919050565b600082825260208201905092915050565b6000613eb182613e8a565b613ebb8185613e95565b9350613ecb818560208601612aff565b613ed481612b32565b840191505092915050565b6000608082019050613ef46000830187612c33565b613f016020830186612c33565b613f0e6040830185612cc9565b8181036060830152613f208184613ea6565b905095945050505050565b600081519050613f3a81612a54565b92915050565b600060208284031215613f5657613f55612a1e565b5b6000613f6484828501613f2b565b91505092915050565b6000613f7882612b9e565b9150613f8383612b9e565b925082821015613f9657613f956135d9565b5b828203905092915050565b7f4e487b7100000000000000000000000000000000000000000000000000000000600052603160045260246000fd5b7f4552433732313a206d696e7420746f20746865207a65726f2061646472657373600082015250565b6000614006602083612aee565b915061401182613fd0565b602082019050919050565b6000602082019050818103600083015261403581613ff9565b9050919050565b7f4552433732313a20746f6b656e20616c7265616479206d696e74656400000000600082015250565b6000614072601c83612aee565b915061407d8261403c565b602082019050919050565b600060208201905081810360008301526140a181614065565b905091905056fea26469706673582212207cf5afa979c98252c097725cc4aff9c5068e6e299ca8c1f436e672ec3e367cbb64736f6c634300080d0033",
  "immutableReferences": {},
  "source": "//SPDX-License-Identifier: MIT\npragma solidity ^0.8.13;\n\nimport \"@openzeppelin/contracts/utils/Counters.sol\";\nimport \"@openzeppelin/contracts/access/Ownable.sol\";\nimport \"@openzeppelin/contracts/utils/math/SafeMath.sol\";\nimport \"@openzeppelin/contracts/token/ERC721/extensions/ERC721Enumerable.sol\";\n\ncontract NFTCollection is ERC721Enumerable, Ownable {\n    using SafeMath for uint256;\n    using Counters for Counters.Counter;\n\n    Counters.Counter private _tokenIds;\n    // The max number of NFTs in the collection\n    uint public constant MAX_SUPPLY = 1000;\n    // The mint price for the collection\n    uint public constant PRICE = 0 ether;\n    // The max number of mints per wallet\n    uint public constant MAX_PER_MINT = 5;\n\n    string public baseTokenURI;\n\n    constructor(string memory baseURI, string memory name, string memory symbol) ERC721(name, symbol) {\n        setBaseURI(baseURI);\n    }\n\n\n    function _baseURI() internal view virtual override returns (string memory) {\n        return baseTokenURI;\n    }\n\n    function setBaseURI(string memory _baseTokenURI) public onlyOwner {\n        baseTokenURI = _baseTokenURI;\n    }\n\n    function mintNFTs(uint _count) public payable {\n        uint totalMinted = _tokenIds.current();\n\n        require(totalMinted.add(_count) <= MAX_SUPPLY, \"This collection is sold out!\");\n        require(_count >0 && _count <= MAX_PER_MINT, \"You have received the maximum amount of NFTs allowed.\");\n        require(msg.value >= PRICE.mul(_count), \"Not enough ether to purchase NFTs.\");\n\n        for (uint i = 0; i < _count; i++) {\n            _mintSingleNFT();\n        }\n    }\n\n    function _mintSingleNFT() private {\n        uint newTokenID = _tokenIds.current();\n        _safeMint(msg.sender, newTokenID);\n        _tokenIds.increment();\n    }\n    \n    // Returns the ids of the NFTs owned by the wallet address\n    function tokensOfOwner(address _owner) external view returns (uint[] memory) {\n        uint tokenCount = balanceOf(_owner);\n        uint[] memory tokensId = new uint256[](tokenCount);\n\n        for (uint i = 0; i < tokenCount; i++) {\n            tokensId[i] = tokenOfOwnerByIndex(_owner, i);\n        }\n        return tokensId;\n    }\n    \n    // Withdraw the ether in the contract\n    function withdraw() public payable onlyOwner {\n        uint balance = address(this).balance;\n        require(balance > 0, \"No ether left to withdraw\");\n\n        (bool success, ) = (msg.sender).call{value: balance}(\"\");\n        require(success, \"Transfer failed.\");\n    }\n\n    // Reserve NFTs only for owner to mint for free\n    function reserveNFTs(uint _count) public onlyOwner {\n        uint totalMinted = _tokenIds.current();\n\n        require(totalMinted.add(_count) < MAX_SUPPLY, \"Not enough NFTs left to reserve\");\n\n        for (uint i = 0; i < _count; i++) {\n            _mintSingleNFT();\n        }\n    }\n}\n\n",
  "sourcePath": "/Users/michal/work/my-nft/contracts/NFTCollection.sol",
  "compiler": {
    "name": "solc",
    "version": "0.8.13+commit.abaa5c0e.Emscripten.clang"
  },
  "schemaVersion": "3.4.11",
  "updatedAt": "2023-01-27T17:45:27.029Z",
  "networkType": "ethereum",
  "devdoc": {
    "kind": "dev",
    "methods": {
      "approve(address,uint256)": {
        "details": "See {IERC721-approve}."
      },
      "balanceOf(address)": {
        "details": "See {IERC721-balanceOf}."
      },
      "getApproved(uint256)": {
        "details": "See {IERC721-getApproved}."
      },
      "isApprovedForAll(address,address)": {
        "details": "See {IERC721-isApprovedForAll}."
      },
      "name()": {
        "details": "See {IERC721Metadata-name}."
      },
      "owner()": {
        "details": "Returns the address of the current owner."
      },
      "ownerOf(uint256)": {
        "details": "See {IERC721-ownerOf}."
      },
      "renounceOwnership()": {
        "details": "Leaves the contract without owner. It will not be possible to call `onlyOwner` functions anymore. Can only be called by the current owner. NOTE: Renouncing ownership will leave the contract without an owner, thereby removing any functionality that is only available to the owner."
      },
      "safeTransferFrom(address,address,uint256)": {
        "details": "See {IERC721-safeTransferFrom}."
      },
      "safeTransferFrom(address,address,uint256,bytes)": {
        "details": "See {IERC721-safeTransferFrom}."
      },
      "setApprovalForAll(address,bool)": {
        "details": "See {IERC721-setApprovalForAll}."
      },
      "supportsInterface(bytes4)": {
        "details": "See {IERC165-supportsInterface}."
      },
      "symbol()": {
        "details": "See {IERC721Metadata-symbol}."
      },
      "tokenByIndex(uint256)": {
        "details": "See {IERC721Enumerable-tokenByIndex}."
      },
      "tokenOfOwnerByIndex(address,uint256)": {
        "details": "See {IERC721Enumerable-tokenOfOwnerByIndex}."
      },
      "tokenURI(uint256)": {
        "details": "See {IERC721Metadata-tokenURI}."
      },
      "totalSupply()": {
        "details": "See {IERC721Enumerable-totalSupply}."
      },
      "transferFrom(address,address,uint256)": {
        "details": "See {IERC721-transferFrom}."
      },
      "transferOwnership(address)": {
        "details": "Transfers ownership of the contract to a new account (`newOwner`). Can only be called by the current owner."
      }
    },
    "version": 1
  },
  "userdoc": {
    "kind": "user",
    "methods": {},
    "version": 1
  }
}